{
  "_format": "hh-sol-artifact-1",
  "contractName": "WavePortal",
  "sourceName": "contracts/WavePortal.sol",
  "abi": [
    {
      "inputs": [],
      "stateMutability": "payable",
      "type": "constructor"
    },
    {
      "anonymous": false,
      "inputs": [
        {
          "indexed": true,
          "internalType": "address",
          "name": "from",
          "type": "address"
        },
        {
          "indexed": false,
          "internalType": "uint256",
          "name": "timestamp",
          "type": "uint256"
        },
        {
          "indexed": false,
          "internalType": "string",
          "name": "message",
          "type": "string"
        }
      ],
      "name": "NewJoin",
      "type": "event"
    },
    {
      "inputs": [],
      "name": "getAllJoiners",
      "outputs": [
        {
          "components": [
            {
              "internalType": "address",
              "name": "joiner",
              "type": "address"
            },
            {
              "internalType": "string",
              "name": "message",
              "type": "string"
            },
            {
              "internalType": "uint256",
              "name": "timestamp",
              "type": "uint256"
            }
          ],
          "internalType": "struct WavePortal.Join[]",
          "name": "",
          "type": "tuple[]"
        }
      ],
      "stateMutability": "view",
      "type": "function"
    },
    {
      "inputs": [
        {
          "internalType": "string",
          "name": "_message",
          "type": "string"
        }
      ],
      "name": "getNewUsers",
      "outputs": [],
      "stateMutability": "nonpayable",
      "type": "function"
    },
    {
      "inputs": [],
      "name": "getTotalNewUsers",
      "outputs": [
        {
          "internalType": "uint256",
          "name": "",
          "type": "uint256"
        }
      ],
      "stateMutability": "view",
      "type": "function"
    },
    {
      "inputs": [
        {
          "internalType": "address",
          "name": "",
          "type": "address"
        }
      ],
      "name": "lastWavedAt",
      "outputs": [
        {
          "internalType": "uint256",
          "name": "",
          "type": "uint256"
        }
      ],
      "stateMutability": "view",
      "type": "function"
    }
  ],
  "bytecode": "0x60806040526200004f6040518060400160405280600e81526020017f436f6e7472616374206275696c740000000000000000000000000000000000008152506200007760201b6200060d1760201c565b606444426200005f9190620001c4565b6200006b919062000261565b60018190555062000308565b62000117816040516024016200008e919062000184565b6040516020818303038152906040527f41304fac000000000000000000000000000000000000000000000000000000007bffffffffffffffffffffffffffffffffffffffffffffffffffffffff19166020820180517bffffffffffffffffffffffffffffffffffffffffffffffffffffffff83818316178352505050506200011a60201b60201c565b50565b60008151905060006a636f6e736f6c652e6c6f679050602083016000808483855afa5050505050565b60006200015082620001a8565b6200015c8185620001b3565b93506200016e8185602086016200022b565b6200017981620002f7565b840191505092915050565b60006020820190508181036000830152620001a0818462000143565b905092915050565b600081519050919050565b600082825260208201905092915050565b6000620001d18262000221565b9150620001de8362000221565b9250827fffffffffffffffffffffffffffffffffffffffffffffffffffffffffffffffff0382111562000216576200021562000299565b5b828201905092915050565b6000819050919050565b60005b838110156200024b5780820151818401526020810190506200022e565b838111156200025b576000848401525b50505050565b60006200026e8262000221565b91506200027b8362000221565b9250826200028e576200028d620002c8565b5b828206905092915050565b7f4e487b7100000000000000000000000000000000000000000000000000000000600052601160045260246000fd5b7f4e487b7100000000000000000000000000000000000000000000000000000000600052601260045260246000fd5b6000601f19601f8301169050919050565b61120080620003186000396000f3fe608060405234801561001057600080fd5b506004361061004c5760003560e01c80630c7f7ade1461005157806340ccd01b1461006f578063a42a46631461008b578063f6d2c459146100bb575b600080fd5b6100596100d9565b6040516100669190610e3b565b60405180910390f35b610089600480360381019061008491906109ef565b610107565b005b6100a560048036038101906100a091906109c6565b6104a4565b6040516100b29190610e3b565b60405180910390f35b6100c36104bc565b6040516100d09190610cf2565b60405180910390f35b60006100ff6040518060600160405280602a81526020016111a1602a91396000546106a6565b600054905090565b42601e600360003373ffffffffffffffffffffffffffffffffffffffff1673ffffffffffffffffffffffffffffffffffffffff168152602001908152602001600020546101549190610f58565b10610194576040517f08c379a000000000000000000000000000000000000000000000000000000000815260040161018b90610ddb565b60405180910390fd5b42600360003373ffffffffffffffffffffffffffffffffffffffff1673ffffffffffffffffffffffffffffffffffffffff1681526020019081526020016000208190555060016000808282546101ea9190610f58565b925050819055506102146040518060600160405280602d8152602001611174602d91393383610742565b600260405180606001604052803373ffffffffffffffffffffffffffffffffffffffff16815260200183815260200142815250908060018154018082558091505060019003906000526020600020906003020160009091909190915060008201518160000160006101000a81548173ffffffffffffffffffffffffffffffffffffffff021916908373ffffffffffffffffffffffffffffffffffffffff16021790555060208201518160010190805190602001906102d39291906108a6565b50604082015181600201555050606460015442446102f19190610f58565b6102fb9190610f58565b610305919061105e565b600181905550603260015411610451576103546040518060400160405280600781526020017f257320576f6e2100000000000000000000000000000000000000000000000000815250336107e1565b6000655af3107a40009050478111156103a2576040517f08c379a000000000000000000000000000000000000000000000000000000000815260040161039990610dfb565b60405180910390fd5b60003373ffffffffffffffffffffffffffffffffffffffff16826040516103c890610cdd565b60006040518083038185875af1925050503d8060008114610405576040519150601f19603f3d011682016040523d82523d6000602084013e61040a565b606091505b505090508061044e576040517f08c379a000000000000000000000000000000000000000000000000000000000815260040161044590610e1b565b60405180910390fd5b50505b3373ffffffffffffffffffffffffffffffffffffffff167f9cef87bc081b58d9c0dba024ebf57da653031b204a7a3920294f1b1d4552095f4283604051610499929190610e56565b60405180910390a250565b60036020528060005260406000206000915090505481565b60606002805480602002602001604051908101604052809291908181526020016000905b8282101561060457838290600052602060002090600302016040518060600160405290816000820160009054906101000a900473ffffffffffffffffffffffffffffffffffffffff1673ffffffffffffffffffffffffffffffffffffffff1673ffffffffffffffffffffffffffffffffffffffff1681526020016001820180546105699061102c565b80601f01602080910402602001604051908101604052809291908181526020018280546105959061102c565b80156105e25780601f106105b7576101008083540402835291602001916105e2565b820191906000526020600020905b8154815290600101906020018083116105c557829003601f168201915b50505050508152602001600282015481525050815260200190600101906104e0565b50505050905090565b6106a3816040516024016106219190610d14565b6040516020818303038152906040527f41304fac000000000000000000000000000000000000000000000000000000007bffffffffffffffffffffffffffffffffffffffffffffffffffffffff19166020820180517bffffffffffffffffffffffffffffffffffffffffffffffffffffffff838183161783525050505061087d565b50565b61073e82826040516024016106bc929190610dab565b6040516020818303038152906040527f9710a9d0000000000000000000000000000000000000000000000000000000007bffffffffffffffffffffffffffffffffffffffffffffffffffffffff19166020820180517bffffffffffffffffffffffffffffffffffffffffffffffffffffffff838183161783525050505061087d565b5050565b6107dc83838360405160240161075a93929190610d66565b6040516020818303038152906040527fe0e9ad4f000000000000000000000000000000000000000000000000000000007bffffffffffffffffffffffffffffffffffffffffffffffffffffffff19166020820180517bffffffffffffffffffffffffffffffffffffffffffffffffffffffff838183161783525050505061087d565b505050565b61087982826040516024016107f7929190610d36565b6040516020818303038152906040527f319af333000000000000000000000000000000000000000000000000000000007bffffffffffffffffffffffffffffffffffffffffffffffffffffffff19166020820180517bffffffffffffffffffffffffffffffffffffffffffffffffffffffff838183161783525050505061087d565b5050565b60008151905060006a636f6e736f6c652e6c6f679050602083016000808483855afa5050505050565b8280546108b29061102c565b90600052602060002090601f0160209004810192826108d4576000855561091b565b82601f106108ed57805160ff191683800117855561091b565b8280016001018555821561091b579182015b8281111561091a5782518255916020019190600101906108ff565b5b509050610928919061092c565b5090565b5b8082111561094557600081600090555060010161092d565b5090565b600061095c61095784610eb7565b610e86565b90508281526020810184848401111561097457600080fd5b61097f848285610fea565b509392505050565b6000813590506109968161115c565b92915050565b600082601f8301126109ad57600080fd5b81356109bd848260208601610949565b91505092915050565b6000602082840312156109d857600080fd5b60006109e684828501610987565b91505092915050565b600060208284031215610a0157600080fd5b600082013567ffffffffffffffff811115610a1b57600080fd5b610a278482850161099c565b91505092915050565b6000610a3c8383610c6f565b905092915050565b610a4d81610fae565b82525050565b610a5c81610fae565b82525050565b6000610a6d82610ef7565b610a778185610f1a565b935083602082028501610a8985610ee7565b8060005b85811015610ac55784840389528151610aa68582610a30565b9450610ab183610f0d565b925060208a01995050600181019050610a8d565b50829750879550505050505092915050565b6000610ae282610f02565b610aec8185610f36565b9350610afc818560208601610ff9565b610b058161114b565b840191505092915050565b6000610b1b82610f02565b610b258185610f47565b9350610b35818560208601610ff9565b610b3e8161114b565b840191505092915050565b6000610b56600a83610f47565b91507f4573706572652031356d000000000000000000000000000000000000000000006000830152602082019050919050565b6000610b96602f83610f47565b91507f547279696e6720746f20676574206d6f7265206d6f6e6579207468616e20746860008301527f6520636f6e7472616374206861732e00000000000000000000000000000000006020830152604082019050919050565b6000610bfc600083610f2b565b9150600082019050919050565b6000610c16602583610f47565b91507f46616c686f7520656d2073616361722064696e686569726f20646f20636f6e7460008301527f7261746f2e0000000000000000000000000000000000000000000000000000006020830152604082019050919050565b6000606083016000830151610c876000860182610a44565b5060208301518482036020860152610c9f8282610ad7565b9150506040830151610cb46040860182610cbf565b508091505092915050565b610cc881610fe0565b82525050565b610cd781610fe0565b82525050565b6000610ce882610bef565b9150819050919050565b60006020820190508181036000830152610d0c8184610a62565b905092915050565b60006020820190508181036000830152610d2e8184610b10565b905092915050565b60006040820190508181036000830152610d508185610b10565b9050610d5f6020830184610a53565b9392505050565b60006060820190508181036000830152610d808186610b10565b9050610d8f6020830185610a53565b8181036040830152610da18184610b10565b9050949350505050565b60006040820190508181036000830152610dc58185610b10565b9050610dd46020830184610cce565b9392505050565b60006020820190508181036000830152610df481610b49565b9050919050565b60006020820190508181036000830152610e1481610b89565b9050919050565b60006020820190508181036000830152610e3481610c09565b9050919050565b6000602082019050610e506000830184610cce565b92915050565b6000604082019050610e6b6000830185610cce565b8181036020830152610e7d8184610b10565b90509392505050565b6000604051905081810181811067ffffffffffffffff82111715610ead57610eac61111c565b5b8060405250919050565b600067ffffffffffffffff821115610ed257610ed161111c565b5b601f19601f8301169050602081019050919050565b6000819050602082019050919050565b600081519050919050565b600081519050919050565b6000602082019050919050565b600082825260208201905092915050565b600081905092915050565b600082825260208201905092915050565b600082825260208201905092915050565b6000610f6382610fe0565b9150610f6e83610fe0565b9250827fffffffffffffffffffffffffffffffffffffffffffffffffffffffffffffffff03821115610fa357610fa261108f565b5b828201905092915050565b6000610fb982610fc0565b9050919050565b600073ffffffffffffffffffffffffffffffffffffffff82169050919050565b6000819050919050565b82818337600083830152505050565b60005b83811015611017578082015181840152602081019050610ffc565b83811115611026576000848401525b50505050565b6000600282049050600182168061104457607f821691505b60208210811415611058576110576110ed565b5b50919050565b600061106982610fe0565b915061107483610fe0565b925082611084576110836110be565b5b828206905092915050565b7f4e487b7100000000000000000000000000000000000000000000000000000000600052601160045260246000fd5b7f4e487b7100000000000000000000000000000000000000000000000000000000600052601260045260246000fd5b7f4e487b7100000000000000000000000000000000000000000000000000000000600052602260045260246000fd5b7f4e487b7100000000000000000000000000000000000000000000000000000000600052604160045260246000fd5b6000601f19601f8301169050919050565b61116581610fae565b811461117057600080fd5b5056fe257320686173206a6f696e656420506f6b6546616e6174696373212053656e742061206d65737361676520257357652068617665206120746f74616c206f66202564206f6620506f6b6546616e61746963207573657273a264697066735822122000a2713ddc61c996e7ab073a83f94ba2e59a211f35c4dd12ace38e153b7bdcac64736f6c63430008000033",
  "linkReferences": {},
  "deployedLinkReferences": {}
}